{
  "contractName": "ESV",
  "abi": [
    {
      "inputs": [],
      "payable": false,
      "stateMutability": "nonpayable",
      "type": "constructor"
    },
    {
      "constant": true,
      "inputs": [],
      "name": "getContractOwner",
      "outputs": [
        {
          "internalType": "address",
          "name": "",
          "type": "address"
        }
      ],
      "payable": false,
      "stateMutability": "view",
      "type": "function"
    },
    {
      "constant": false,
      "inputs": [
        {
          "internalType": "uint256",
          "name": "_userUUID",
          "type": "uint256"
        }
      ],
      "name": "setESVItemCreate",
      "outputs": [],
      "payable": false,
      "stateMutability": "nonpayable",
      "type": "function"
    },
    {
      "constant": true,
      "inputs": [
        {
          "internalType": "uint256",
          "name": "_userUUID",
          "type": "uint256"
        }
      ],
      "name": "getESVItem",
      "outputs": [
        {
          "internalType": "bool",
          "name": "",
          "type": "bool"
        },
        {
          "internalType": "bool",
          "name": "",
          "type": "bool"
        },
        {
          "internalType": "string",
          "name": "",
          "type": "string"
        },
        {
          "internalType": "string",
          "name": "",
          "type": "string"
        },
        {
          "internalType": "address",
          "name": "",
          "type": "address"
        }
      ],
      "payable": false,
      "stateMutability": "view",
      "type": "function"
    },
    {
      "constant": true,
      "inputs": [],
      "name": "getAllESVItemIDs",
      "outputs": [
        {
          "internalType": "uint256[]",
          "name": "",
          "type": "uint256[]"
        }
      ],
      "payable": false,
      "stateMutability": "view",
      "type": "function"
    },
    {
      "constant": true,
      "inputs": [],
      "name": "getESVItemCount",
      "outputs": [
        {
          "internalType": "uint256",
          "name": "",
          "type": "uint256"
        }
      ],
      "payable": false,
      "stateMutability": "view",
      "type": "function"
    },
    {
      "constant": false,
      "inputs": [
        {
          "internalType": "uint256",
          "name": "_userUUID",
          "type": "uint256"
        }
      ],
      "name": "setESVItemDelete",
      "outputs": [],
      "payable": false,
      "stateMutability": "nonpayable",
      "type": "function"
    },
    {
      "constant": false,
      "inputs": [
        {
          "internalType": "uint256",
          "name": "_userUUID",
          "type": "uint256"
        },
        {
          "internalType": "string",
          "name": "_msg",
          "type": "string"
        },
        {
          "internalType": "string",
          "name": "_sig",
          "type": "string"
        },
        {
          "internalType": "bytes",
          "name": "_ethaddr",
          "type": "bytes"
        }
      ],
      "name": "setESVItemSignatureUpdate",
      "outputs": [],
      "payable": false,
      "stateMutability": "nonpayable",
      "type": "function"
    },
    {
      "constant": false,
      "inputs": [
        {
          "internalType": "uint256[]",
          "name": "_userUUID",
          "type": "uint256[]"
        },
        {
          "internalType": "string[]",
          "name": "_msg",
          "type": "string[]"
        },
        {
          "internalType": "string[]",
          "name": "_sig",
          "type": "string[]"
        },
        {
          "internalType": "bytes[]",
          "name": "_ethaddr",
          "type": "bytes[]"
        }
      ],
      "name": "setMultiESVItemSignatureUpdate",
      "outputs": [],
      "payable": false,
      "stateMutability": "nonpayable",
      "type": "function"
    },
    {
      "constant": true,
      "inputs": [
        {
          "internalType": "uint256[]",
          "name": "_userUUID",
          "type": "uint256[]"
        }
      ],
      "name": "getMultiESVItem",
      "outputs": [
        {
          "components": [
            {
              "internalType": "bool",
              "name": "exists",
              "type": "bool"
            },
            {
              "internalType": "bool",
              "name": "hasSigned",
              "type": "bool"
            },
            {
              "internalType": "string",
              "name": "messageHash",
              "type": "string"
            },
            {
              "internalType": "string",
              "name": "signature",
              "type": "string"
            },
            {
              "internalType": "address",
              "name": "ethAddress",
              "type": "address"
            }
          ],
          "internalType": "struct ESV.ESVItem[]",
          "name": "",
          "type": "tuple[]"
        }
      ],
      "payable": false,
      "stateMutability": "view",
      "type": "function"
    },
    {
      "constant": false,
      "inputs": [
        {
          "internalType": "uint256[]",
          "name": "_accts",
          "type": "uint256[]"
        }
      ],
      "name": "setMultiESVItemCreate",
      "outputs": [],
      "payable": false,
      "stateMutability": "nonpayable",
      "type": "function"
    },
    {
      "constant": false,
      "inputs": [
        {
          "internalType": "uint256",
          "name": "_userUUID",
          "type": "uint256"
        }
      ],
      "name": "setESVItemSignatureDelete",
      "outputs": [],
      "payable": false,
      "stateMutability": "nonpayable",
      "type": "function"
    },
    {
      "constant": false,
      "inputs": [
        {
          "internalType": "address",
          "name": "_addr",
          "type": "address"
        }
      ],
      "name": "setAdminCreate",
      "outputs": [],
      "payable": false,
      "stateMutability": "nonpayable",
      "type": "function"
    },
    {
      "constant": false,
      "inputs": [
        {
          "internalType": "address",
          "name": "_addr",
          "type": "address"
        }
      ],
      "name": "setAdminDelete",
      "outputs": [],
      "payable": false,
      "stateMutability": "nonpayable",
      "type": "function"
    },
    {
      "constant": false,
      "inputs": [
        {
          "internalType": "address[]",
          "name": "_addrs",
          "type": "address[]"
        }
      ],
      "name": "setMultiAdminCreate",
      "outputs": [],
      "payable": false,
      "stateMutability": "nonpayable",
      "type": "function"
    },
    {
      "constant": false,
      "inputs": [
        {
          "internalType": "address[]",
          "name": "_addrs",
          "type": "address[]"
        }
      ],
      "name": "setMultiAdminDelete",
      "outputs": [],
      "payable": false,
      "stateMutability": "nonpayable",
      "type": "function"
    },
    {
      "constant": true,
      "inputs": [
        {
          "internalType": "bytes32",
          "name": "hash",
          "type": "bytes32"
        },
        {
          "internalType": "bytes",
          "name": "signature",
          "type": "bytes"
        }
      ],
      "name": "getSignatureAddress",
      "outputs": [
        {
          "internalType": "address",
          "name": "",
          "type": "address"
        }
      ],
      "payable": false,
      "stateMutability": "pure",
      "type": "function"
    },
    {
      "constant": true,
      "inputs": [],
      "name": "getAllAdmins",
      "outputs": [
        {
          "internalType": "address[]",
          "name": "",
          "type": "address[]"
        }
      ],
      "payable": false,
      "stateMutability": "view",
      "type": "function"
    },
    {
      "constant": true,
      "inputs": [],
      "name": "getSignatureCount",
      "outputs": [
        {
          "internalType": "uint256",
          "name": "",
          "type": "uint256"
        }
      ],
      "payable": false,
      "stateMutability": "view",
      "type": "function"
    },
    {
      "constant": true,
      "inputs": [],
      "name": "getMessageHashCount",
      "outputs": [
        {
          "internalType": "uint256",
          "name": "",
          "type": "uint256"
        }
      ],
      "payable": false,
      "stateMutability": "view",
      "type": "function"
    },
    {
      "constant": true,
      "inputs": [],
      "name": "getEthereumAddressCount",
      "outputs": [
        {
          "internalType": "uint256",
          "name": "",
          "type": "uint256"
        }
      ],
      "payable": false,
      "stateMutability": "view",
      "type": "function"
    },
    {
      "constant": true,
      "inputs": [],
      "name": "getAdminCount",
      "outputs": [
        {
          "internalType": "uint256",
          "name": "",
          "type": "uint256"
        }
      ],
      "payable": false,
      "stateMutability": "view",
      "type": "function"
    }
  ],
  "bytecode": "0x60806040523480156200001157600080fd5b5033600a60006101000a81548173ffffffffffffffffffffffffffffffffffffffff021916908373ffffffffffffffffffffffffffffffffffffffff16021790555062000086600a60009054906101000a900473ffffffffffffffffffffffffffffffffffffffff166200008c60201b60201c565b62000375565b600a60009054906101000a900473ffffffffffffffffffffffffffffffffffffffff1673ffffffffffffffffffffffffffffffffffffffff163373ffffffffffffffffffffffffffffffffffffffff16146200011f576040517f08c379a0000000000000000000000000000000000000000000000000000000008152600401620001169062000320565b60405180910390fd5b60001515600860008373ffffffffffffffffffffffffffffffffffffffff1673ffffffffffffffffffffffffffffffffffffffff16815260200190815260200160002060009054906101000a900460ff16151514620001b5576040517f08c379a0000000000000000000000000000000000000000000000000000000008152600401620001ac9062000342565b60405180910390fd5b6001600860008373ffffffffffffffffffffffffffffffffffffffff1673ffffffffffffffffffffffffffffffffffffffff16815260200190815260200160002060006101000a81548160ff02191690831515021790555060078190806001815401808255809150509060018203906000526020600020016000909192909190916101000a81548173ffffffffffffffffffffffffffffffffffffffff021916908373ffffffffffffffffffffffffffffffffffffffff1602179055505050565b600062000285602b8362000364565b91507f4f6e6c7920636f6e7472616374206f776e65722063616e2063616c6c2074686960008301527f732066756e6374696f6e210000000000000000000000000000000000000000006020830152604082019050919050565b6000620002ed60158362000364565b91507f61646d696e20616c7265616479206578697374732100000000000000000000006000830152602082019050919050565b600060208201905081810360008301526200033b8162000276565b9050919050565b600060208201905081810360008301526200035d81620002de565b9050919050565b600082825260208201905092915050565b614ada80620003856000396000f3fe608060405234801561001057600080fd5b50600436106101375760003560e01c806389d84af5116100b8578063b0d09e401161007c578063b0d09e4014610314578063beb5e06c14610330578063c677962e14610364578063e9523c9714610380578063f76cb0fe1461039e578063fe1f310e146103ba57610137565b806389d84af51461026c5780638b7bf3eb1461028a5780638f2667d1146102a85780638febc2f4146102d8578063aad286bd146102f657610137565b80635b10a664116100ff5780635b10a664146101de57806369d2ca45146101fa578063714a8c0214610216578063743ba8e814610232578063866c34641461025057610137565b8063281d89171461013c57806339ab6e7f146101585780633b8a12c8146101745780633d877b1f146101a4578063442890d5146101c0575b600080fd5b61015660048036036101519190810190613650565b6103d8565b005b610172600480360361016d91908101906136d2565b6106a2565b005b61018e60048036036101899190810190613795565b610cb3565b60405161019b919061433e565b60405180910390f35b6101be60048036036101b99190810190613691565b610d7d565b005b6101c8611100565b6040516101d5919061433e565b60405180910390f35b6101f860048036036101f391908101906137e9565b61112a565b005b610214600480360361020f91908101906137e9565b6117a6565b005b610230600480360361022b9190810190613627565b61197b565b005b61023a611c94565b604051610247919061439d565b60405180910390f35b61026a60048036036102659190810190613627565b611cec565b005b610274611ed0565b6040516102819190614705565b60405180910390f35b610292611edd565b60405161029f9190614705565b60405180910390f35b6102c260048036036102bd9190810190613691565b611eea565b6040516102cf919061437b565b60405180910390f35b6102e06122a5565b6040516102ed9190614705565b60405180910390f35b6102fe6122b1565b60405161030b9190614705565b60405180910390f35b61032e60048036036103299190810190613650565b6122be565b005b61034a600480360361034591908101906137e9565b612684565b60405161035b9594939291906143bf565b60405180910390f35b61037e60048036036103799190810190613812565b612882565b005b610388612c57565b6040516103959190614359565b60405180910390f35b6103b860048036036103b391908101906137e9565b612ce5565b005b6103c2612f4f565b6040516103cf9190614705565b60405180910390f35b600a60009054906101000a900473ffffffffffffffffffffffffffffffffffffffff1673ffffffffffffffffffffffffffffffffffffffff163373ffffffffffffffffffffffffffffffffffffffff1614610468576040517f08c379a000000000000000000000000000000000000000000000000000000000815260040161045f906146a5565b60405180910390fd5b600080905060008090505b825181101561069d57600083828151811061048a57fe5b602002602001015190508273ffffffffffffffffffffffffffffffffffffffff168173ffffffffffffffffffffffffffffffffffffffff1611610502576040517f08c379a00000000000000000000000000000000000000000000000000000000081526004016104f990614565565b60405180910390fd5b809250600015156008600086858151811061051957fe5b602002602001015173ffffffffffffffffffffffffffffffffffffffff1673ffffffffffffffffffffffffffffffffffffffff16815260200190815260200160002060009054906101000a900460ff161515146105ab576040517f08c379a00000000000000000000000000000000000000000000000000000000081526004016105a290614625565b60405180910390fd5b6001600860008685815181106105bd57fe5b602002602001015173ffffffffffffffffffffffffffffffffffffffff1673ffffffffffffffffffffffffffffffffffffffff16815260200190815260200160002060006101000a81548160ff021916908315150217905550600784838151811061062457fe5b602002602001015190806001815401808255809150509060018203906000526020600020016000909192909190916101000a81548173ffffffffffffffffffffffffffffffffffffffff021916908373ffffffffffffffffffffffffffffffffffffffff16021790555050508080600101915050610473565b505050565b82518451146106e6576040517f08c379a00000000000000000000000000000000000000000000000000000000081526004016106dd90614545565b60405180910390fd5b815184511461072a576040517f08c379a0000000000000000000000000000000000000000000000000000000008152600401610721906145a5565b60405180910390fd5b805184511461076e576040517f08c379a0000000000000000000000000000000000000000000000000000000008152600401610765906144e5565b60405180910390fd5b60008451116107b2576040517f08c379a00000000000000000000000000000000000000000000000000000000081526004016107a9906145e5565b60405180910390fd5b600080905060008090505b8551811015610cab5760011515600960008884815181106107da57fe5b6020026020010151815260200190815260200160002060000160009054906101000a900460ff16151514610843576040517f08c379a000000000000000000000000000000000000000000000000000000000815260040161083a906144c5565b60405180910390fd5b600086828151811061085157fe5b60200260200101519050600061087985848151811061086c57fe5b6020026020010151612f5c565b90508382116108bd576040517f08c379a00000000000000000000000000000000000000000000000000000000081526004016108b490614465565b60405180910390fd5b60001515600660008373ffffffffffffffffffffffffffffffffffffffff1673ffffffffffffffffffffffffffffffffffffffff16815260200190815260200160002060009054906101000a900460ff16151514610950576040517f08c379a000000000000000000000000000000000000000000000000000000000815260040161094790614505565b60405180910390fd5b8193506040518060a0016040528060011515815260200160011515815260200188858151811061097c57fe5b6020026020010151815260200187858151811061099557fe5b602002602001015181526020018273ffffffffffffffffffffffffffffffffffffffff16815250600960008a86815181106109cc57fe5b6020026020010151815260200190815260200160002060008201518160000160006101000a81548160ff02191690831515021790555060208201518160000160016101000a81548160ff0219169083151502179055506040820151816001019080519060200190610a3e9291906130ab565b506060820151816002019080519060200190610a5b9291906130ab565b5060808201518160030160006101000a81548173ffffffffffffffffffffffffffffffffffffffff021916908373ffffffffffffffffffffffffffffffffffffffff1602179055509050506003878481518110610ab457fe5b60200260200101519080600181540180825580915050906001820390600052602060002001600090919290919091509080519060200190610af692919061312b565b505060016004888581518110610b0857fe5b6020026020010151604051610b1d91906142f9565b908152602001604051809103902060006101000a81548160ff0219169083151502179055506001868481518110610b5057fe5b60200260200101519080600181540180825580915050906001820390600052602060002001600090919290919091509080519060200190610b9292919061312b565b505060016002878581518110610ba457fe5b6020026020010151604051610bb991906142f9565b908152602001604051809103902060006101000a81548160ff02191690831515021790555060058190806001815401808255809150509060018203906000526020600020016000909192909190916101000a81548173ffffffffffffffffffffffffffffffffffffffff021916908373ffffffffffffffffffffffffffffffffffffffff160217905550506001600660008373ffffffffffffffffffffffffffffffffffffffff1673ffffffffffffffffffffffffffffffffffffffff16815260200190815260200160002060006101000a81548160ff021916908315150217905550505080806001019150506107bd565b505050505050565b6000806000806041855114610cce5760009350505050610d77565b6020850151925060408501519150606085015160001a9050601b8160ff161015610cf957601b810190505b601b8160ff1614158015610d115750601c8160ff1614155b15610d225760009350505050610d77565b60018682858560405160008152602001604052604051610d459493929190614420565b6020604051602081039080840390855afa158015610d67573d6000803e3d6000fd5b5050506020604051035193505050505b92915050565b600860003373ffffffffffffffffffffffffffffffffffffffff1673ffffffffffffffffffffffffffffffffffffffff16815260200190815260200160002060009054906101000a900460ff16610e09576040517f08c379a0000000000000000000000000000000000000000000000000000000008152600401610e0090614665565b60405180910390fd5b6000815111610e4d576040517f08c379a0000000000000000000000000000000000000000000000000000000008152600401610e44906144a5565b60405180910390fd5b6000809050610e628260006001855103612f6a565b60008090505b82518110156110fb576000838281518110610e7f57fe5b60200260200101519050828111610ecb576040517f08c379a0000000000000000000000000000000000000000000000000000000008152600401610ec290614605565b60405180910390fd5b6000151560096000868581518110610edf57fe5b6020026020010151815260200190815260200160002060000160009054906101000a900460ff16151514610f48576040517f08c379a0000000000000000000000000000000000000000000000000000000008152600401610f3f906146e5565b60405180910390fd5b809250600015156009600083815260200190815260200160002060000160009054906101000a900460ff16151514156110ed57610f836131ab565b6040518060a00160405280600115158152602001600015158152602001604051806020016040528060008152508152602001604051806020016040528060008152508152602001600073ffffffffffffffffffffffffffffffffffffffff168152509050806009600084815260200190815260200160002060008201518160000160006101000a81548160ff02191690831515021790555060208201518160000160016101000a81548160ff02191690831515021790555060408201518160010190805190602001906110579291906130ab565b5060608201518160020190805190602001906110749291906130ab565b5060808201518160030160006101000a81548173ffffffffffffffffffffffffffffffffffffffff021916908373ffffffffffffffffffffffffffffffffffffffff1602179055509050506000829080600181540180825580915050906001820390600052602060002001600090919290919091505550505b508080600101915050610e68565b505050565b6000600a60009054906101000a900473ffffffffffffffffffffffffffffffffffffffff16905090565b6009600082815260200190815260200160002060000160009054906101000a900460ff1661118d576040517f08c379a000000000000000000000000000000000000000000000000000000000815260040161118490614525565b60405180910390fd5b6009600082815260200190815260200160002060000160019054906101000a900460ff166111f0576040517f08c379a00000000000000000000000000000000000000000000000000000000081526004016111e790614585565b60405180910390fd5b6060600960008381526020019081526020016000206002018054600181600116156101000203166002900480601f01602080910402602001604051908101604052809291908181526020018280546001816001161561010002031660029004801561129c5780601f106112715761010080835404028352916020019161129c565b820191906000526020600020905b81548152906001019060200180831161127f57829003601f168201915b5050505050905060006009600084815260200190815260200160002060030160009054906101000a900473ffffffffffffffffffffffffffffffffffffffff1690506000600660008373ffffffffffffffffffffffffffffffffffffffff1673ffffffffffffffffffffffffffffffffffffffff16815260200190815260200160002060006101000a81548160ff0219169083151502179055506040518060200160405280600081525060096000858152602001908152602001600020600101908051906020019061136f92919061312b565b50604051806020016040528060008152506009600085815260200190815260200160002060020190805190602001906113a992919061312b565b5060006009600085815260200190815260200160002060030160006101000a81548173ffffffffffffffffffffffffffffffffffffffff021916908373ffffffffffffffffffffffffffffffffffffffff16021790555060006009600085815260200190815260200160002060000160016101000a81548160ff02191690831515021790555060008090505b6001805490508110156117a057826040516020016114539190614310565b604051602081830303815290604052805190602001206001828154811061147657fe5b906000526020600020016040516020016114909190614327565b60405160208183030381529060405280519060200120141561179357600181815481106114b957fe5b9060005260206000200160006114cf91906131f4565b600381815481106114dc57fe5b9060005260206000200160006114f291906131f4565b600581815481106114ff57fe5b9060005260206000200160006101000a81549073ffffffffffffffffffffffffffffffffffffffff021916905560606001808080549050038154811061154157fe5b906000526020600020018054600181600116156101000203166002900480601f0160208091040260200160405190810160405280929190818152602001828054600181600116156101000203166002900480156115df5780601f106115b4576101008083540402835291602001916115df565b820191906000526020600020905b8154815290600101906020018083116115c257829003601f168201915b5050505050905060606003600160038054905003815481106115fd57fe5b906000526020600020018054600181600116156101000203166002900480601f01602080910402602001604051908101604052809291908181526020018280546001816001161561010002031660029004801561169b5780601f106116705761010080835404028352916020019161169b565b820191906000526020600020905b81548152906001019060200180831161167e57829003601f168201915b5050505050905081600184815481106116b057fe5b9060005260206000200190805190602001906116cd92919061312b565b5080600384815481106116dc57fe5b9060005260206000200190805190602001906116f992919061312b565b50600180548061170557fe5b60019003818190600052602060002001600061172191906131f4565b9055600380548061172e57fe5b60019003818190600052602060002001600061174a91906131f4565b9055600580548061175757fe5b6001900381819060005260206000200160006101000a81549073ffffffffffffffffffffffffffffffffffffffff0219169055905550506117a0565b8080600101915050611435565b50505050565b600860003373ffffffffffffffffffffffffffffffffffffffff1673ffffffffffffffffffffffffffffffffffffffff16815260200190815260200160002060009054906101000a900460ff16611832576040517f08c379a000000000000000000000000000000000000000000000000000000000815260040161182990614665565b60405180910390fd5b60096000828152602001908152602001600020600080820160006101000a81549060ff02191690556000820160016101000a81549060ff021916905560018201600061187e91906131f4565b60028201600061188e91906131f4565b6003820160006101000a81549073ffffffffffffffffffffffffffffffffffffffff0219169055505060008090505b6000805490508110156119775781600082815481106118d857fe5b9060005260206000200154141561196a57600081815481106118f657fe5b90600052602060002001600090556000806001600080549050038154811061191a57fe5b90600052602060002001549050806000838154811061193557fe5b9060005260206000200181905550600080548061194e57fe5b6001900381819060005260206000200160009055905550611977565b80806001019150506118bd565b5050565b600a60009054906101000a900473ffffffffffffffffffffffffffffffffffffffff1673ffffffffffffffffffffffffffffffffffffffff163373ffffffffffffffffffffffffffffffffffffffff1614611a0b576040517f08c379a0000000000000000000000000000000000000000000000000000000008152600401611a02906146a5565b60405180910390fd5b600a60009054906101000a900473ffffffffffffffffffffffffffffffffffffffff1673ffffffffffffffffffffffffffffffffffffffff168173ffffffffffffffffffffffffffffffffffffffff161415611a9c576040517f08c379a0000000000000000000000000000000000000000000000000000000008152600401611a93906145c5565b60405180910390fd5b600860008273ffffffffffffffffffffffffffffffffffffffff1673ffffffffffffffffffffffffffffffffffffffff16815260200190815260200160002060006101000a81549060ff021916905560008090505b600780549050811015611c90578173ffffffffffffffffffffffffffffffffffffffff1660078281548110611b2257fe5b9060005260206000200160009054906101000a900473ffffffffffffffffffffffffffffffffffffffff1673ffffffffffffffffffffffffffffffffffffffff161415611c835760078181548110611b7657fe5b9060005260206000200160006101000a81549073ffffffffffffffffffffffffffffffffffffffff02191690556000600760016007805490500381548110611bba57fe5b9060005260206000200160009054906101000a900473ffffffffffffffffffffffffffffffffffffffff1690508060078381548110611bf557fe5b9060005260206000200160006101000a81548173ffffffffffffffffffffffffffffffffffffffff021916908373ffffffffffffffffffffffffffffffffffffffff1602179055506007805480611c4857fe5b6001900381819060005260206000200160006101000a81549073ffffffffffffffffffffffffffffffffffffffff0219169055905550611c90565b8080600101915050611af1565b5050565b60606000805480602002602001604051908101604052809291908181526020018280548015611ce257602002820191906000526020600020905b815481526020019060010190808311611cce575b5050505050905090565b600a60009054906101000a900473ffffffffffffffffffffffffffffffffffffffff1673ffffffffffffffffffffffffffffffffffffffff163373ffffffffffffffffffffffffffffffffffffffff1614611d7c576040517f08c379a0000000000000000000000000000000000000000000000000000000008152600401611d73906146a5565b60405180910390fd5b60001515600860008373ffffffffffffffffffffffffffffffffffffffff1673ffffffffffffffffffffffffffffffffffffffff16815260200190815260200160002060009054906101000a900460ff16151514611e0f576040517f08c379a0000000000000000000000000000000000000000000000000000000008152600401611e06906146c5565b60405180910390fd5b6001600860008373ffffffffffffffffffffffffffffffffffffffff1673ffffffffffffffffffffffffffffffffffffffff16815260200190815260200160002060006101000a81548160ff02191690831515021790555060078190806001815401808255809150509060018203906000526020600020016000909192909190916101000a81548173ffffffffffffffffffffffffffffffffffffffff021916908373ffffffffffffffffffffffffffffffffffffffff1602179055505050565b6000600180549050905090565b6000600780549050905090565b60606000825111611f30576040517f08c379a0000000000000000000000000000000000000000000000000000000008152600401611f27906144a5565b60405180910390fd5b60608251604051908082528060200260200182016040528015611f6d57816020015b611f5a61323c565b815260200190600190039081611f525790505b5090506000809050611f858460006001875103612f6a565b60008090505b845181101561229a576001151560096000878481518110611fa857fe5b6020026020010151815260200190815260200160002060000160009054906101000a900460ff16151514612011576040517f08c379a000000000000000000000000000000000000000000000000000000000815260040161200890614485565b60405180910390fd5b600085828151811061201f57fe5b6020026020010151905082811161206b576040517f08c379a000000000000000000000000000000000000000000000000000000000815260040161206290614605565b60405180910390fd5b80925060006009600088858151811061208057fe5b602002602001015181526020019081526020016000209050806040518060a00160405290816000820160009054906101000a900460ff161515151581526020016000820160019054906101000a900460ff16151515158152602001600182018054600181600116156101000203166002900480601f0160208091040260200160405190810160405280929190818152602001828054600181600116156101000203166002900480156121735780601f1061214857610100808354040283529160200191612173565b820191906000526020600020905b81548152906001019060200180831161215657829003601f168201915b50505050508152602001600282018054600181600116156101000203166002900480601f0160208091040260200160405190810160405280929190818152602001828054600181600116156101000203166002900480156122155780601f106121ea57610100808354040283529160200191612215565b820191906000526020600020905b8154815290600101906020018083116121f857829003601f168201915b505050505081526020016003820160009054906101000a900473ffffffffffffffffffffffffffffffffffffffff1673ffffffffffffffffffffffffffffffffffffffff1673ffffffffffffffffffffffffffffffffffffffff168152505085848151811061228057fe5b602002602001018190525050508080600101915050611f8b565b508192505050919050565b60008080549050905090565b6000600580549050905090565b600a60009054906101000a900473ffffffffffffffffffffffffffffffffffffffff1673ffffffffffffffffffffffffffffffffffffffff163373ffffffffffffffffffffffffffffffffffffffff161461234e576040517f08c379a0000000000000000000000000000000000000000000000000000000008152600401612345906146a5565b60405180910390fd5b600080905060008090505b825181101561267f57600083828151811061237057fe5b602002602001015190508273ffffffffffffffffffffffffffffffffffffffff168173ffffffffffffffffffffffffffffffffffffffff16116123e8576040517f08c379a00000000000000000000000000000000000000000000000000000000081526004016123df90614565565b60405180910390fd5b809250600a60009054906101000a900473ffffffffffffffffffffffffffffffffffffffff1673ffffffffffffffffffffffffffffffffffffffff168173ffffffffffffffffffffffffffffffffffffffff16141561247c576040517f08c379a0000000000000000000000000000000000000000000000000000000008152600401612473906145c5565b60405180910390fd5b600860008273ffffffffffffffffffffffffffffffffffffffff1673ffffffffffffffffffffffffffffffffffffffff16815260200190815260200160002060006101000a81549060ff021916905560008090505b600780549050811015612670578173ffffffffffffffffffffffffffffffffffffffff166007828154811061250257fe5b9060005260206000200160009054906101000a900473ffffffffffffffffffffffffffffffffffffffff1673ffffffffffffffffffffffffffffffffffffffff16141561266357600060076001600780549050038154811061256057fe5b9060005260206000200160009054906101000a900473ffffffffffffffffffffffffffffffffffffffff1690506007828154811061259a57fe5b9060005260206000200160006101000a81549073ffffffffffffffffffffffffffffffffffffffff021916905580600783815481106125d557fe5b9060005260206000200160006101000a81548173ffffffffffffffffffffffffffffffffffffffff021916908373ffffffffffffffffffffffffffffffffffffffff160217905550600780548061262857fe5b6001900381819060005260206000200160006101000a81549073ffffffffffffffffffffffffffffffffffffffff0219169055905550612670565b80806001019150506124d1565b50508080600101915050612359565b505050565b60008060608060006009600087815260200190815260200160002060000160009054906101000a900460ff166009600088815260200190815260200160002060000160019054906101000a900460ff1660096000898152602001908152602001600020600101600960008a8152602001908152602001600020600201600960008b815260200190815260200160002060030160009054906101000a900473ffffffffffffffffffffffffffffffffffffffff16828054600181600116156101000203166002900480601f0160208091040260200160405190810160405280929190818152602001828054600181600116156101000203166002900480156127cc5780601f106127a1576101008083540402835291602001916127cc565b820191906000526020600020905b8154815290600101906020018083116127af57829003601f168201915b50505050509250818054600181600116156101000203166002900480601f0160208091040260200160405190810160405280929190818152602001828054600181600116156101000203166002900480156128685780601f1061283d57610100808354040283529160200191612868565b820191906000526020600020905b81548152906001019060200180831161284b57829003601f168201915b505050505091509450945094509450945091939590929450565b600115156009600086815260200190815260200160002060000160009054906101000a900460ff161515146128ec576040517f08c379a00000000000000000000000000000000000000000000000000000000081526004016128e3906144c5565b60405180910390fd5b60006128f782612f5c565b905060001515600660008373ffffffffffffffffffffffffffffffffffffffff1673ffffffffffffffffffffffffffffffffffffffff16815260200190815260200160002060009054906101000a900460ff1615151461298c576040517f08c379a000000000000000000000000000000000000000000000000000000000815260040161298390614685565b60405180910390fd5b6040518060a001604052806001151581526020016001151581526020018581526020018481526020018273ffffffffffffffffffffffffffffffffffffffff168152506009600087815260200190815260200160002060008201518160000160006101000a81548160ff02191690831515021790555060208201518160000160016101000a81548160ff0219169083151502179055506040820151816001019080519060200190612a3e9291906130ab565b506060820151816002019080519060200190612a5b9291906130ab565b5060808201518160030160006101000a81548173ffffffffffffffffffffffffffffffffffffffff021916908373ffffffffffffffffffffffffffffffffffffffff1602179055509050506003849080600181540180825580915050906001820390600052602060002001600090919290919091509080519060200190612ae392919061312b565b50506001600485604051612af79190614310565b908152602001604051809103902060006101000a81548160ff0219169083151502179055506001839080600181540180825580915050906001820390600052602060002001600090919290919091509080519060200190612b5992919061312b565b50506001600284604051612b6d9190614310565b908152602001604051809103902060006101000a81548160ff02191690831515021790555060058190806001815401808255809150509060018203906000526020600020016000909192909190916101000a81548173ffffffffffffffffffffffffffffffffffffffff021916908373ffffffffffffffffffffffffffffffffffffffff160217905550506001600660008373ffffffffffffffffffffffffffffffffffffffff1673ffffffffffffffffffffffffffffffffffffffff16815260200190815260200160002060006101000a81548160ff0219169083151502179055505050505050565b60606007805480602002602001604051908101604052809291908181526020018280548015612cdb57602002820191906000526020600020905b8160009054906101000a900473ffffffffffffffffffffffffffffffffffffffff1673ffffffffffffffffffffffffffffffffffffffff1681526020019060010190808311612c91575b5050505050905090565b600860003373ffffffffffffffffffffffffffffffffffffffff1673ffffffffffffffffffffffffffffffffffffffff16815260200190815260200160002060009054906101000a900460ff16612d71576040517f08c379a0000000000000000000000000000000000000000000000000000000008152600401612d6890614665565b60405180910390fd5b600015156009600083815260200190815260200160002060000160009054906101000a900460ff16151514612ddb576040517f08c379a0000000000000000000000000000000000000000000000000000000008152600401612dd290614645565b60405180910390fd5b612de36131ab565b6040518060a00160405280600115158152602001600015158152602001604051806020016040528060008152508152602001604051806020016040528060008152508152602001600073ffffffffffffffffffffffffffffffffffffffff168152509050806009600084815260200190815260200160002060008201518160000160006101000a81548160ff02191690831515021790555060208201518160000160016101000a81548160ff0219169083151502179055506040820151816001019080519060200190612eb79291906130ab565b506060820151816002019080519060200190612ed49291906130ab565b5060808201518160030160006101000a81548173ffffffffffffffffffffffffffffffffffffffff021916908373ffffffffffffffffffffffffffffffffffffffff16021790555090505060008290806001815401808255809150509060018203906000526020600020016000909192909190915055505050565b6000600380549050905090565b600060148201519050919050565b6000829050600082905080821415612f835750506130a6565b600085600286860381612f9257fe5b05860181518110612f9f57fe5b602002602001015190505b81831361307a575b80868481518110612fbf57fe5b60200260200101511015612fda578280600101935050612fb2565b5b858281518110612fe757fe5b602002602001015181101561300457818060019003925050612fdb565b8183136130755785828151811061301757fe5b602002602001015186848151811061302b57fe5b602002602001015187858151811061303f57fe5b6020026020010188858151811061305257fe5b602002602001018281525082815250505082806001019350508180600190039250505b612faa565b8185121561308e5761308d868684612f6a565b5b838312156130a2576130a1868486612f6a565b5b5050505b505050565b828054600181600116156101000203166002900490600052602060002090601f016020900481019282601f106130ec57805160ff191683800117855561311a565b8280016001018555821561311a579182015b828111156131195782518255916020019190600101906130fe565b5b5090506131279190613285565b5090565b828054600181600116156101000203166002900490600052602060002090601f016020900481019282601f1061316c57805160ff191683800117855561319a565b8280016001018555821561319a579182015b8281111561319957825182559160200191906001019061317e565b5b5090506131a79190613285565b5090565b6040518060a001604052806000151581526020016000151581526020016060815260200160608152602001600073ffffffffffffffffffffffffffffffffffffffff1681525090565b50805460018160011615610100020316600290046000825580601f1061321a5750613239565b601f0160209004906000526020600020908101906132389190613285565b5b50565b6040518060a001604052806000151581526020016000151581526020016060815260200160608152602001600073ffffffffffffffffffffffffffffffffffffffff1681525090565b6132a791905b808211156132a357600081600090555060010161328b565b5090565b90565b6000813590506132b981614a52565b92915050565b600082601f8301126132d057600080fd5b81356132e36132de8261474d565b614720565b9150818183526020840193506020810190508385602084028201111561330857600080fd5b60005b83811015613338578161331e88826132aa565b84526020840193506020830192505060018101905061330b565b5050505092915050565b600082601f83011261335357600080fd5b813561336661336182614775565b614720565b9150818183526020840193506020810190508360005b838110156133ac578135860161339288826134c2565b84526020840193506020830192505060018101905061337c565b5050505092915050565b600082601f8301126133c757600080fd5b81356133da6133d58261479d565b614720565b9150818183526020840193506020810190508360005b838110156134205781358601613406888261356a565b8452602084019350602083019250506001810190506133f0565b5050505092915050565b600082601f83011261343b57600080fd5b813561344e613449826147c5565b614720565b9150818183526020840193506020810190508385602084028201111561347357600080fd5b60005b838110156134a357816134898882613612565b845260208401935060208301925050600181019050613476565b5050505092915050565b6000813590506134bc81614a69565b92915050565b600082601f8301126134d357600080fd5b81356134e66134e1826147ed565b614720565b9150808252602083016020830185838301111561350257600080fd5b61350d8382846149ff565b50505092915050565b600082601f83011261352757600080fd5b813561353a61353582614819565b614720565b9150808252602083016020830185838301111561355657600080fd5b6135618382846149ff565b50505092915050565b600082601f83011261357b57600080fd5b813561358e61358982614845565b614720565b915080825260208301602083018583830111156135aa57600080fd5b6135b58382846149ff565b50505092915050565b600082601f8301126135cf57600080fd5b81356135e26135dd82614871565b614720565b915080825260208301602083018583830111156135fe57600080fd5b6136098382846149ff565b50505092915050565b60008135905061362181614a80565b92915050565b60006020828403121561363957600080fd5b6000613647848285016132aa565b91505092915050565b60006020828403121561366257600080fd5b600082013567ffffffffffffffff81111561367c57600080fd5b613688848285016132bf565b91505092915050565b6000602082840312156136a357600080fd5b600082013567ffffffffffffffff8111156136bd57600080fd5b6136c98482850161342a565b91505092915050565b600080600080608085870312156136e857600080fd5b600085013567ffffffffffffffff81111561370257600080fd5b61370e8782880161342a565b945050602085013567ffffffffffffffff81111561372b57600080fd5b613737878288016133b6565b935050604085013567ffffffffffffffff81111561375457600080fd5b613760878288016133b6565b925050606085013567ffffffffffffffff81111561377d57600080fd5b61378987828801613342565b91505092959194509250565b600080604083850312156137a857600080fd5b60006137b6858286016134ad565b925050602083013567ffffffffffffffff8111156137d357600080fd5b6137df85828601613516565b9150509250929050565b6000602082840312156137fb57600080fd5b600061380984828501613612565b91505092915050565b6000806000806080858703121561382857600080fd5b600061383687828801613612565b945050602085013567ffffffffffffffff81111561385357600080fd5b61385f878288016135be565b935050604085013567ffffffffffffffff81111561387c57600080fd5b613888878288016135be565b925050606085013567ffffffffffffffff8111156138a557600080fd5b6138b187828801613516565b91505092959194509250565b60006138c98383613901565b60208301905092915050565b60006138e1838361424f565b905092915050565b60006138f583836142cc565b60208301905092915050565b61390a816149a0565b82525050565b613919816149a0565b82525050565b600061392a826148e2565b6139348185614940565b935061393f8361489d565b8060005b8381101561397057815161395788826138bd565b975061396283614919565b925050600181019050613943565b5085935050505092915050565b6000613988826148ed565b6139928185614951565b9350836020820285016139a4856148ad565b8060005b858110156139e057848403895281516139c185826138d5565b94506139cc83614926565b925060208a019950506001810190506139a8565b50829750879550505050505092915050565b60006139fd826148f8565b613a078185614962565b9350613a12836148bd565b8060005b83811015613a43578151613a2a88826138e9565b9750613a3583614933565b925050600181019050613a16565b5085935050505092915050565b613a59816149b2565b82525050565b613a68816149b2565b82525050565b613a77816149be565b82525050565b6000613a888261490e565b613a928185614984565b9350613aa2818560208601614a0e565b613aab81614a41565b840191505092915050565b6000613ac18261490e565b613acb8185614995565b9350613adb818560208601614a0e565b80840191505092915050565b6000613af282614903565b613afc8185614973565b9350613b0c818560208601614a0e565b613b1581614a41565b840191505092915050565b6000613b2b82614903565b613b358185614995565b9350613b45818560208601614a0e565b80840191505092915050565b600081546001811660008114613b6e5760018114613b9357613bd7565b607f6002830416613b7f8187614995565b955060ff1983168652808601935050613bd7565b60028204613ba18187614995565b9550613bac856148cd565b60005b82811015613bce57815481890152600182019150602081019050613baf565b82880195505050505b505092915050565b6000613bec601b83614984565b91507f4475706c6963617465204553564974656d2064657465637465642100000000006000830152602082019050919050565b6000613c2c602083614984565b91507f4553564974656d20646f65736e277420657869737420696e2073797374656d216000830152602082019050919050565b6000613c6c601f83614984565b91507f4d756c7469706c65204553564974656d73206e6f742070726f766964656421006000830152602082019050919050565b6000613cac602283614984565b91507f4553564974656d206e6f742063726561746564206265666f726520757064617460008301527f65210000000000000000000000000000000000000000000000000000000000006020830152604082019050919050565b6000613d12601f83614984565b91507f41646472657373657320646f6e277420657175616c204553564974656d7321006000830152602082019050919050565b6000613d52601a83614984565b91507f4164647265737320616c726561647920696e2073797374656d210000000000006000830152602082019050919050565b6000613d92601e83614984565b91507f4553564974656d204164647265737320646f65736e27742065786973742100006000830152602082019050919050565b6000613dd2601c83614984565b91507f48617368657320646f6e277420657175616c204553564974656d7321000000006000830152602082019050919050565b6000613e12602283614984565b91507f4475706c69636174657320646574656374656420696e20696e707574206c697360008301527f74210000000000000000000000000000000000000000000000000000000000006020830152604082019050919050565b6000613e78601b83614984565b91507f4553564974656d2041646472657373206e6f74207369676e65642100000000006000830152602082019050919050565b6000613eb8602083614984565b91507f5369676e61747572657320646f6e277420657175616c204553564974656d73216000830152602082019050919050565b6000613ef8602583614984565b91507f43616e27742072656d6f766520636f6e7472616374206f776e6572206173206160008301527f646d696e210000000000000000000000000000000000000000000000000000006020830152604082019050919050565b6000613f5e601b83614984565b91507f4553564974656d206172726179206e6f74206e6f6e2d7a65726f2100000000006000830152602082019050919050565b6000613f9e602683614984565b91507f4475706c6963617465204553564974656d2072657472696576616c206174746560008301527f6d707465642100000000000000000000000000000000000000000000000000006020830152604082019050919050565b6000614004601583614984565b91507f41646d696e20616c7265616479206578697374732100000000000000000000006000830152602082019050919050565b6000614044602a83614984565b91507f455356204974656d20616c7265616479206578697374732c206661696c65642060008301527f746f2072652d61646421000000000000000000000000000000000000000000006020830152604082019050919050565b60006140aa602a83614984565b91507f4f6e6c792061646d696e73747261746f72732063616e2063616c6c207468697360008301527f2066756e6374696f6e21000000000000000000000000000000000000000000006020830152604082019050919050565b6000614110601e83614984565b91507f457468204164647265737320616c726561647920696e2073797374656d2100006000830152602082019050919050565b6000614150602b83614984565b91507f4f6e6c7920636f6e7472616374206f776e65722063616e2063616c6c2074686960008301527f732066756e6374696f6e210000000000000000000000000000000000000000006020830152604082019050919050565b60006141b6601583614984565b91507f61646d696e20616c7265616479206578697374732100000000000000000000006000830152602082019050919050565b60006141f6602b83614984565b91507f4553564974656d20617474656d7074656420616c72656164792065786973747360008301527f20696e2073797374656d210000000000000000000000000000000000000000006020830152604082019050919050565b600060a0830160008301516142676000860182613a50565b50602083015161427a6020860182613a50565b50604083015184820360408601526142928282613ae7565b915050606083015184820360608601526142ac8282613ae7565b91505060808301516142c16080860182613901565b508091505092915050565b6142d5816149e8565b82525050565b6142e4816149e8565b82525050565b6142f3816149f2565b82525050565b60006143058284613b20565b915081905092915050565b600061431c8284613ab6565b915081905092915050565b60006143338284613b51565b915081905092915050565b60006020820190506143536000830184613910565b92915050565b60006020820190508181036000830152614373818461391f565b905092915050565b60006020820190508181036000830152614395818461397d565b905092915050565b600060208201905081810360008301526143b781846139f2565b905092915050565b600060a0820190506143d46000830188613a5f565b6143e16020830187613a5f565b81810360408301526143f38186613a7d565b905081810360608301526144078185613a7d565b90506144166080830184613910565b9695505050505050565b60006080820190506144356000830187613a6e565b61444260208301866142ea565b61444f6040830185613a6e565b61445c6060830184613a6e565b95945050505050565b6000602082019050818103600083015261447e81613bdf565b9050919050565b6000602082019050818103600083015261449e81613c1f565b9050919050565b600060208201905081810360008301526144be81613c5f565b9050919050565b600060208201905081810360008301526144de81613c9f565b9050919050565b600060208201905081810360008301526144fe81613d05565b9050919050565b6000602082019050818103600083015261451e81613d45565b9050919050565b6000602082019050818103600083015261453e81613d85565b9050919050565b6000602082019050818103600083015261455e81613dc5565b9050919050565b6000602082019050818103600083015261457e81613e05565b9050919050565b6000602082019050818103600083015261459e81613e6b565b9050919050565b600060208201905081810360008301526145be81613eab565b9050919050565b600060208201905081810360008301526145de81613eeb565b9050919050565b600060208201905081810360008301526145fe81613f51565b9050919050565b6000602082019050818103600083015261461e81613f91565b9050919050565b6000602082019050818103600083015261463e81613ff7565b9050919050565b6000602082019050818103600083015261465e81614037565b9050919050565b6000602082019050818103600083015261467e8161409d565b9050919050565b6000602082019050818103600083015261469e81614103565b9050919050565b600060208201905081810360008301526146be81614143565b9050919050565b600060208201905081810360008301526146de816141a9565b9050919050565b600060208201905081810360008301526146fe816141e9565b9050919050565b600060208201905061471a60008301846142db565b92915050565b6000604051905081810181811067ffffffffffffffff8211171561474357600080fd5b8060405250919050565b600067ffffffffffffffff82111561476457600080fd5b602082029050602081019050919050565b600067ffffffffffffffff82111561478c57600080fd5b602082029050602081019050919050565b600067ffffffffffffffff8211156147b457600080fd5b602082029050602081019050919050565b600067ffffffffffffffff8211156147dc57600080fd5b602082029050602081019050919050565b600067ffffffffffffffff82111561480457600080fd5b601f19601f8301169050602081019050919050565b600067ffffffffffffffff82111561483057600080fd5b601f19601f8301169050602081019050919050565b600067ffffffffffffffff82111561485c57600080fd5b601f19601f8301169050602081019050919050565b600067ffffffffffffffff82111561488857600080fd5b601f19601f8301169050602081019050919050565b6000819050602082019050919050565b6000819050602082019050919050565b6000819050602082019050919050565b60008190508160005260206000209050919050565b600081519050919050565b600081519050919050565b600081519050919050565b600081519050919050565b600081519050919050565b6000602082019050919050565b6000602082019050919050565b6000602082019050919050565b600082825260208201905092915050565b600082825260208201905092915050565b600082825260208201905092915050565b600082825260208201905092915050565b600082825260208201905092915050565b600081905092915050565b60006149ab826149c8565b9050919050565b60008115159050919050565b6000819050919050565b600073ffffffffffffffffffffffffffffffffffffffff82169050919050565b6000819050919050565b600060ff82169050919050565b82818337600083830152505050565b60005b83811015614a2c578082015181840152602081019050614a11565b83811115614a3b576000848401525b50505050565b6000601f19601f8301169050919050565b614a5b816149a0565b8114614a6657600080fd5b50565b614a72816149be565b8114614a7d57600080fd5b50565b614a89816149e8565b8114614a9457600080fd5b5056fea365627a7a7231582091e78f7180c2b3822dacdf54172ef08bcc26b9b744cee6a72bf8fb2b9d6b02d56c6578706572696d656e74616cf564736f6c63430005100040",
  "source": "pragma solidity ^0.5.0;\npragma experimental ABIEncoderV2;\n\ncontract ESV\n{\n    uint256[] accountIDs;\n    \n    string[] accountSignatures;\n    mapping(string => bool) Signatures;\n\n    string[] accountMessageHashes;\n    mapping(string => bool) MessageHashes;\n\n    address[] etherAddrs;\n    mapping(address => bool) ethAddresses;\n\n    address[] adminAddresses;\n    mapping(address => bool) admins;\n\n    mapping(uint256 => ESVItem) accounts;\n\n    address payable owner;\n    \n    struct ESVItem \n    {\n        bool exists;\n        bool hasSigned;\n        string messageHash;\n        string signature;\n        address ethAddress;\n    }\n    \n    modifier onlyContractOwner \n    {\n        require (msg.sender == owner, \"Only contract owner can call this function!\");\n        _;\n    }\n    \n    modifier onlyAdmins() \n    {\n        require(admins[msg.sender], \"Only adminstrators can call this function!\");\n        _;\n    }\n\n    constructor() public \n    { \n        owner = msg.sender; \n        setAdminCreate(owner);\n    }\n    \n    function getContractOwner() view public returns (address)\n    {\n        return owner;\n    }\n\n    function setESVItemCreate(uint256 _userUUID) public onlyAdmins\n    {\n        require(accounts[_userUUID].exists == false, \"ESV Item already exists, failed to re-add!\");     // prevent gas wastage on redundant add\n        {\n            ESVItem memory newESVItem = ESVItem(true, false, \"\", \"\", address(0));\n            accounts[_userUUID] = newESVItem;\n            accountIDs.push(_userUUID);\n        }\n    }\n\n    function getESVItem(uint256 _userUUID) view public returns (bool, bool, string memory, string memory, address) \n    {\n        return (accounts[_userUUID].exists, accounts[_userUUID].hasSigned, accounts[_userUUID].messageHash, accounts[_userUUID].signature,  accounts[_userUUID].ethAddress);\n    }\n\n    function getAllESVItemIDs() view public returns(uint256[] memory) \n    {\n        return accountIDs;\n    }\n\n    function getESVItemCount() view public returns (uint) \n    {\n        return accountIDs.length;\n    }\n\n    function setESVItemDelete(uint256 _userUUID) public onlyAdmins\n    {\n        delete accounts[_userUUID];\n        for (uint j = 0; j < accountIDs.length; j++) \n        {\n            if(accountIDs[j] == _userUUID)\n            {\n                delete accountIDs[j];\n                uint256 lastESVItemID = accountIDs[accountIDs.length - 1];  \n                accountIDs[j] = lastESVItemID;                                   \n                accountIDs.pop();\n                break;\n            }\n        }\n    }\n\n    function setESVItemSignatureUpdate(uint256 _userUUID, string memory _msg, string memory _sig, bytes memory _ethaddr) public \n    // assumes message, signature or address cannot be independently updated as this would break verification\n    {\n        require (accounts[_userUUID].exists == true, \"ESVItem not created before update!\");                       \n        address ethAddress = bytesToAddress(_ethaddr);\n        require(ethAddresses[ethAddress] == false, \"Eth Address already in system!\");\n        accounts[_userUUID] = ESVItem(true, true, _msg, _sig, ethAddress);\n        accountMessageHashes.push(_msg);\n        MessageHashes[_msg] = true;\n        accountSignatures.push(_sig);\n        Signatures[_sig] = true;\n        etherAddrs.push(ethAddress);\n        ethAddresses[ethAddress] = true;\n    }\n    \n    function setMultiESVItemSignatureUpdate(uint256[] memory _userUUID, string[] memory _msg, string[] memory _sig, bytes[] memory _ethaddr ) public\n    {\n        require(_userUUID.length == _msg.length,  \"Hashes don't equal ESVItems!\");\n        require(_userUUID.length == _sig.length,  \"Signatures don't equal ESVItems!\");\n        require(_userUUID.length == _ethaddr.length,  \"Addresses don't equal ESVItems!\");\n        require(_userUUID.length > 0, \"ESVItem array not non-zero!\");\n        uint256 lastAcct = 0;                                       \n        for (uint i = 0; i < _userUUID.length; i++)\n        {\n            require (accounts[_userUUID[i]].exists == true, \"ESVItem not created before update!\"); \n            uint256 pendingAcct = _userUUID[i]; \n            address ethAddress = bytesToAddress(_ethaddr[i]);\n            require(pendingAcct > lastAcct, \"Duplicate ESVItem detected!\");\n            require(ethAddresses[ethAddress] == false, \"Address already in system!\");\n            lastAcct = pendingAcct;\n            accounts[_userUUID[i]] = ESVItem(true, true, _msg[i], _sig[i], ethAddress);\n            accountMessageHashes.push(_msg[i]);\n            MessageHashes[_msg[i]] = true;\n            accountSignatures.push(_sig[i]);\n            Signatures[_sig[i]] = true;\n            etherAddrs.push(ethAddress);\n            ethAddresses[ethAddress] = true;\n        }\n    }\n    \n    function bytesToAddress(bytes memory source) internal pure returns(address addr) \n    {\n        assembly \n        {\n            addr := mload(add(source, 0x14))\n        }\n    }\n    \n    function getMultiESVItem(uint256[] memory _userUUID) view public returns (ESVItem[] memory)\n    {\n        require(_userUUID.length > 0, \"Multiple ESVItems not provided!\");\n        ESVItem[] memory accounts_array = new ESVItem[](_userUUID.length);\n        uint256 lastAcct = 0;\n        \n        quickSort(_userUUID, int(0), int(_userUUID.length - 1));\n        \n        for (uint i = 0; i < _userUUID.length; i++)\n        {\n            require(accounts[_userUUID[i]].exists == true, \"ESVItem doesn't exist in system!\");\n            uint256 pendingAcct = _userUUID[i]; \n            require(pendingAcct > lastAcct, \"Duplicate ESVItem retrieval attempted!\");\n            lastAcct = pendingAcct;\n            ESVItem storage account = accounts[_userUUID[i]];\n            accounts_array[i] = account;\n        }\n        return accounts_array;\n    }\n    \n    function setMultiESVItemCreate(uint256[] memory _accts) public onlyAdmins\n    {\n        require(_accts.length > 0, \"Multiple ESVItems not provided!\");\n        uint256 lastAcct = 0;                                       // start at the zeroeth account uuid\n        quickSort(_accts, int(0), int(_accts.length - 1));          // prevents false duplicate account validation when UUIDS in passed in array are specified in descending or mixed order [false positive]\n        for (uint i = 0; i < _accts.length; i++)\n        {\n            uint256 pendingAcct = _accts[i];                        // helps to ensure uniqueness on chain by force-ingesting in ascending integer order\n            require(pendingAcct > lastAcct, \"Duplicate ESVItem retrieval attempted!\");\n            require(accounts[_accts[i]].exists == false, \"ESVItem attempted already exists in system!\");\n            lastAcct = pendingAcct;\n            if (accounts[pendingAcct].exists == false) \n            {\n                ESVItem memory newESVItem = ESVItem(true, false, \"\", \"\", address(0));\n                accounts[pendingAcct] = newESVItem;\n                accountIDs.push(pendingAcct);\n            }            \n        }\n    }\n    \n    function quickSort(uint[] memory arr, int left, int right) internal pure \n    {\n        int i = left;\n        int j = right;\n        if (i == j) return;\n        uint pivot = arr[uint(left + (right - left) / 2)];\n        while (i <= j) \n        {\n            while (arr[uint(i)] < pivot) i++;\n            while (pivot < arr[uint(j)]) j--;\n            if (i <= j) \n            {\n                (arr[uint(i)], arr[uint(j)]) = (arr[uint(j)], arr[uint(i)]);\n                i++;\n                j--;\n            }\n        }\n        if (left < j)\n            quickSort(arr, left, j);\n        if (i < right)\n            quickSort(arr, i, right);\n    }\n\n    function setESVItemSignatureDelete(uint256 _userUUID) public\n    {\n        require(accounts[_userUUID].exists, \"ESVItem Address doesn't exist!\");\n        require(accounts[_userUUID].hasSigned, \"ESVItem Address not signed!\");\n        {\n            string memory signatureExpired = accounts[_userUUID].signature;\n            address ethAddress = accounts[_userUUID].ethAddress;\n            ethAddresses[ethAddress] = false;\n            accounts[_userUUID].messageHash = \"\";\n            accounts[_userUUID].signature = \"\";\n            accounts[_userUUID].ethAddress = address(0);\n            accounts[_userUUID].hasSigned = false;            \n            for (uint j = 0; j < accountSignatures.length; j++) \n            {\n                if (keccak256(abi.encodePacked(accountSignatures[j])) == keccak256(abi.encodePacked(signatureExpired)))\n                {\n                    delete accountSignatures[j];\n                    delete accountMessageHashes[j];                                                    \n                    delete etherAddrs[j];\n                    string memory lastESVItemSig = accountSignatures[accountSignatures.length - 1];\n                    string memory lastMsgHash = accountMessageHashes[accountMessageHashes.length - 1]; \n                    accountSignatures[j] = lastESVItemSig;\n                    accountMessageHashes[j] = lastMsgHash;  \n                    accountSignatures.pop();\n                    accountMessageHashes.pop();\n                    etherAddrs.pop();\n                    break;\n                }\n            }\n        }\n    }\n    \n    function setAdminCreate(address _addr) public onlyContractOwner\n    {\n        require(admins[_addr] == false, \"admin already exists!\");\n        admins[_addr] = true;\n        adminAddresses.push(_addr);\n    }\n    function setAdminDelete(address _addr) public onlyContractOwner\n    {\n        require(_addr != owner, \"Can't remove contract owner as admin!\");\n        delete admins[_addr]; // 10000 gas refund\n        for (uint j = 0; j < adminAddresses.length; j++) \n        {\n            if (adminAddresses[j] == _addr) \n            {\n                delete adminAddresses[j];\n                address lastAdminAddr = adminAddresses[adminAddresses.length - 1];  \n                adminAddresses[j] = lastAdminAddr;                                    // swaps last element with vacated position\n                adminAddresses.pop();                                                 // deletes the last element and recover gas\n                break;\n            }\n        }\n    }\n    function setMultiAdminCreate(address[] memory _addrs) public onlyContractOwner\n    {\n        address lastAddr = address(0);\n        for (uint j = 0; j < _addrs.length; j++) \n        {\n            address pendingAddr = _addrs[j];\n            require(pendingAddr > lastAddr, \"Duplicates detected in input list!\");\n            lastAddr = pendingAddr;\n            require(admins[_addrs[j]] == false, \"Admin already exists!\");\n            admins[_addrs[j]] = true;\n            adminAddresses.push(_addrs[j]);\n        }\n    }\n    \n    function setMultiAdminDelete(address[] memory _addrs) public onlyContractOwner\n    {\n        address lastAddr = address(0);\n        for (uint i = 0; i < _addrs.length; i++) \n        {\n            address pendingAddr = _addrs[i];\n            require(pendingAddr > lastAddr, \"Duplicates detected in input list!\");\n            lastAddr = pendingAddr;\n            require(pendingAddr != owner, \"Can't remove contract owner as admin!\");\n            delete admins[pendingAddr];  // 10000 gas refund\n            for (uint j = 0; j < adminAddresses.length; j++) \n            {\n                if (adminAddresses[j] == pendingAddr) \n                {\n                    address lastAdminAddr = adminAddresses[adminAddresses.length - 1];  \n                    delete adminAddresses[j];\n                    adminAddresses[j] = lastAdminAddr;                               // swaps last element with vacated position\n                    adminAddresses.pop();                                            // deletes the last element and recover gas\n                    break;\n                }\n            }\n        }\n    }\n\n    function getSignatureAddress(bytes32 hash, bytes memory signature) public pure returns (address)\n    {\n        bytes32 r;\n        bytes32 s;\n        uint8 v;\n\n        if (signature.length != 65)   // Check the signature length\n        {\n            return (address(0));\n        }\n\n        assembly \n        {\n            r := mload(add(signature, 0x20))\n            s := mload(add(signature, 0x40))\n            v := byte(0, mload(add(signature, 0x60)))\n        }\n\n        if (v < 27)     // Version of signature should be 27 or 28, but 0 and 1 are also possible versions\n        {\n            v += 27;\n        }\n\n        if (v != 27 && v != 28)    // If the version is correct return the signer address\n        {\n            return (address(0));\n        } \n        else \n        {\n            return ecrecover(hash, v, r, s);    // solium-disable-next-line arg-overflow\n        }\n    }\n    \n    function getAllAdmins() view public returns(address[] memory)\n    {\n        return adminAddresses;\n    }\n\n    function getSignatureCount() view public returns (uint) \n    {\n        return accountSignatures.length;\n    }\n    \n    function getMessageHashCount() view public returns (uint) \n    {\n        return accountMessageHashes.length;\n    }\n    \n    function getEthereumAddressCount() view public returns (uint)\n    {\n        return etherAddrs.length;\n    }\n    \n    function getAdminCount() view public returns (uint) \n    {\n        return adminAddresses.length;\n    }\n}\n\n\n",
  "sourcePath": "/home/srinjoychakravarty/prometheum/esv/esv-react-dapp/src/contracts/ESV.sol",
  "compiler": {
    "name": "solc",
    "version": "0.5.16+commit.9c3226ce.Emscripten.clang"
  },
  "schemaVersion": "3.2.5",
  "updatedAt": "2020-11-25T04:39:18.941Z",
  "devdoc": {
    "methods": {}
  },
  "userdoc": {
    "methods": {}
  }
}